{
  "_format": "hh-sol-artifact-1",
  "contractName": "GivCertificateNFT",
  "sourceName": "contracts/GivCertificateNFT.sol",
  "abi": [
    {
      "inputs": [],
      "stateMutability": "nonpayable",
      "type": "constructor"
    },
    {
      "inputs": [
        {
          "internalType": "address",
          "name": "sender",
          "type": "address"
        },
        {
          "internalType": "uint256",
          "name": "tokenId",
          "type": "uint256"
        },
        {
          "internalType": "address",
          "name": "owner",
          "type": "address"
        }
      ],
      "name": "ERC721IncorrectOwner",
      "type": "error"
    },
    {
      "inputs": [
        {
          "internalType": "address",
          "name": "operator",
          "type": "address"
        },
        {
          "internalType": "uint256",
          "name": "tokenId",
          "type": "uint256"
        }
      ],
      "name": "ERC721InsufficientApproval",
      "type": "error"
    },
    {
      "inputs": [
        {
          "internalType": "address",
          "name": "approver",
          "type": "address"
        }
      ],
      "name": "ERC721InvalidApprover",
      "type": "error"
    },
    {
      "inputs": [
        {
          "internalType": "address",
          "name": "operator",
          "type": "address"
        }
      ],
      "name": "ERC721InvalidOperator",
      "type": "error"
    },
    {
      "inputs": [
        {
          "internalType": "address",
          "name": "owner",
          "type": "address"
        }
      ],
      "name": "ERC721InvalidOwner",
      "type": "error"
    },
    {
      "inputs": [
        {
          "internalType": "address",
          "name": "receiver",
          "type": "address"
        }
      ],
      "name": "ERC721InvalidReceiver",
      "type": "error"
    },
    {
      "inputs": [
        {
          "internalType": "address",
          "name": "sender",
          "type": "address"
        }
      ],
      "name": "ERC721InvalidSender",
      "type": "error"
    },
    {
      "inputs": [
        {
          "internalType": "uint256",
          "name": "tokenId",
          "type": "uint256"
        }
      ],
      "name": "ERC721NonexistentToken",
      "type": "error"
    },
    {
      "inputs": [
        {
          "internalType": "address",
          "name": "owner",
          "type": "address"
        }
      ],
      "name": "OwnableInvalidOwner",
      "type": "error"
    },
    {
      "inputs": [
        {
          "internalType": "address",
          "name": "account",
          "type": "address"
        }
      ],
      "name": "OwnableUnauthorizedAccount",
      "type": "error"
    },
    {
      "anonymous": false,
      "inputs": [
        {
          "indexed": true,
          "internalType": "address",
          "name": "owner",
          "type": "address"
        },
        {
          "indexed": true,
          "internalType": "address",
          "name": "approved",
          "type": "address"
        },
        {
          "indexed": true,
          "internalType": "uint256",
          "name": "tokenId",
          "type": "uint256"
        }
      ],
      "name": "Approval",
      "type": "event"
    },
    {
      "anonymous": false,
      "inputs": [
        {
          "indexed": true,
          "internalType": "address",
          "name": "owner",
          "type": "address"
        },
        {
          "indexed": true,
          "internalType": "address",
          "name": "operator",
          "type": "address"
        },
        {
          "indexed": false,
          "internalType": "bool",
          "name": "approved",
          "type": "bool"
        }
      ],
      "name": "ApprovalForAll",
      "type": "event"
    },
    {
      "anonymous": false,
      "inputs": [
        {
          "indexed": false,
          "internalType": "uint256",
          "name": "_fromTokenId",
          "type": "uint256"
        },
        {
          "indexed": false,
          "internalType": "uint256",
          "name": "_toTokenId",
          "type": "uint256"
        }
      ],
      "name": "BatchMetadataUpdate",
      "type": "event"
    },
    {
      "anonymous": false,
      "inputs": [
        {
          "indexed": true,
          "internalType": "address",
          "name": "recipient",
          "type": "address"
        },
        {
          "indexed": true,
          "internalType": "uint256",
          "name": "tokenId",
          "type": "uint256"
        },
        {
          "indexed": false,
          "internalType": "string",
          "name": "certificateType",
          "type": "string"
        }
      ],
      "name": "CertificateMinted",
      "type": "event"
    },
    {
      "anonymous": false,
      "inputs": [
        {
          "indexed": false,
          "internalType": "uint256",
          "name": "_tokenId",
          "type": "uint256"
        }
      ],
      "name": "MetadataUpdate",
      "type": "event"
    },
    {
      "anonymous": false,
      "inputs": [
        {
          "indexed": true,
          "internalType": "address",
          "name": "previousOwner",
          "type": "address"
        },
        {
          "indexed": true,
          "internalType": "address",
          "name": "newOwner",
          "type": "address"
        }
      ],
      "name": "OwnershipTransferred",
      "type": "event"
    },
    {
      "anonymous": false,
      "inputs": [
        {
          "indexed": true,
          "internalType": "address",
          "name": "from",
          "type": "address"
        },
        {
          "indexed": true,
          "internalType": "address",
          "name": "to",
          "type": "address"
        },
        {
          "indexed": true,
          "internalType": "uint256",
          "name": "tokenId",
          "type": "uint256"
        }
      ],
      "name": "Transfer",
      "type": "event"
    },
    {
      "inputs": [
        {
          "internalType": "address",
          "name": "to",
          "type": "address"
        },
        {
          "internalType": "uint256",
          "name": "tokenId",
          "type": "uint256"
        }
      ],
      "name": "approve",
      "outputs": [],
      "stateMutability": "nonpayable",
      "type": "function"
    },
    {
      "inputs": [
        {
          "internalType": "address",
          "name": "owner",
          "type": "address"
        }
      ],
      "name": "balanceOf",
      "outputs": [
        {
          "internalType": "uint256",
          "name": "",
          "type": "uint256"
        }
      ],
      "stateMutability": "view",
      "type": "function"
    },
    {
      "inputs": [
        {
          "internalType": "uint256",
          "name": "",
          "type": "uint256"
        }
      ],
      "name": "certificateTypes",
      "outputs": [
        {
          "internalType": "string",
          "name": "",
          "type": "string"
        }
      ],
      "stateMutability": "view",
      "type": "function"
    },
    {
      "inputs": [
        {
          "internalType": "uint256",
          "name": "tokenId",
          "type": "uint256"
        }
      ],
      "name": "getApproved",
      "outputs": [
        {
          "internalType": "address",
          "name": "",
          "type": "address"
        }
      ],
      "stateMutability": "view",
      "type": "function"
    },
    {
      "inputs": [
        {
          "internalType": "uint256",
          "name": "tokenId",
          "type": "uint256"
        }
      ],
      "name": "getCertificateType",
      "outputs": [
        {
          "internalType": "string",
          "name": "",
          "type": "string"
        }
      ],
      "stateMutability": "view",
      "type": "function"
    },
    {
      "inputs": [
        {
          "internalType": "address",
          "name": "owner",
          "type": "address"
        },
        {
          "internalType": "address",
          "name": "operator",
          "type": "address"
        }
      ],
      "name": "isApprovedForAll",
      "outputs": [
        {
          "internalType": "bool",
          "name": "",
          "type": "bool"
        }
      ],
      "stateMutability": "view",
      "type": "function"
    },
    {
      "inputs": [
        {
          "internalType": "address",
          "name": "recipient",
          "type": "address"
        },
        {
          "internalType": "string",
          "name": "certificateType",
          "type": "string"
        },
        {
          "internalType": "string",
          "name": "tokenURI",
          "type": "string"
        }
      ],
      "name": "mintCertificate",
      "outputs": [
        {
          "internalType": "uint256",
          "name": "",
          "type": "uint256"
        }
      ],
      "stateMutability": "nonpayable",
      "type": "function"
    },
    {
      "inputs": [],
      "name": "name",
      "outputs": [
        {
          "internalType": "string",
          "name": "",
          "type": "string"
        }
      ],
      "stateMutability": "view",
      "type": "function"
    },
    {
      "inputs": [],
      "name": "owner",
      "outputs": [
        {
          "internalType": "address",
          "name": "",
          "type": "address"
        }
      ],
      "stateMutability": "view",
      "type": "function"
    },
    {
      "inputs": [
        {
          "internalType": "uint256",
          "name": "tokenId",
          "type": "uint256"
        }
      ],
      "name": "ownerOf",
      "outputs": [
        {
          "internalType": "address",
          "name": "",
          "type": "address"
        }
      ],
      "stateMutability": "view",
      "type": "function"
    },
    {
      "inputs": [],
      "name": "renounceOwnership",
      "outputs": [],
      "stateMutability": "nonpayable",
      "type": "function"
    },
    {
      "inputs": [
        {
          "internalType": "address",
          "name": "from",
          "type": "address"
        },
        {
          "internalType": "address",
          "name": "to",
          "type": "address"
        },
        {
          "internalType": "uint256",
          "name": "tokenId",
          "type": "uint256"
        }
      ],
      "name": "safeTransferFrom",
      "outputs": [],
      "stateMutability": "nonpayable",
      "type": "function"
    },
    {
      "inputs": [
        {
          "internalType": "address",
          "name": "from",
          "type": "address"
        },
        {
          "internalType": "address",
          "name": "to",
          "type": "address"
        },
        {
          "internalType": "uint256",
          "name": "tokenId",
          "type": "uint256"
        },
        {
          "internalType": "bytes",
          "name": "data",
          "type": "bytes"
        }
      ],
      "name": "safeTransferFrom",
      "outputs": [],
      "stateMutability": "nonpayable",
      "type": "function"
    },
    {
      "inputs": [
        {
          "internalType": "address",
          "name": "operator",
          "type": "address"
        },
        {
          "internalType": "bool",
          "name": "approved",
          "type": "bool"
        }
      ],
      "name": "setApprovalForAll",
      "outputs": [],
      "stateMutability": "nonpayable",
      "type": "function"
    },
    {
      "inputs": [
        {
          "internalType": "bytes4",
          "name": "interfaceId",
          "type": "bytes4"
        }
      ],
      "name": "supportsInterface",
      "outputs": [
        {
          "internalType": "bool",
          "name": "",
          "type": "bool"
        }
      ],
      "stateMutability": "view",
      "type": "function"
    },
    {
      "inputs": [],
      "name": "symbol",
      "outputs": [
        {
          "internalType": "string",
          "name": "",
          "type": "string"
        }
      ],
      "stateMutability": "view",
      "type": "function"
    },
    {
      "inputs": [
        {
          "internalType": "uint256",
          "name": "tokenId",
          "type": "uint256"
        }
      ],
      "name": "tokenURI",
      "outputs": [
        {
          "internalType": "string",
          "name": "",
          "type": "string"
        }
      ],
      "stateMutability": "view",
      "type": "function"
    },
    {
      "inputs": [
        {
          "internalType": "address",
          "name": "from",
          "type": "address"
        },
        {
          "internalType": "address",
          "name": "to",
          "type": "address"
        },
        {
          "internalType": "uint256",
          "name": "tokenId",
          "type": "uint256"
        }
      ],
      "name": "transferFrom",
      "outputs": [],
      "stateMutability": "nonpayable",
      "type": "function"
    },
    {
      "inputs": [
        {
          "internalType": "address",
          "name": "newOwner",
          "type": "address"
        }
      ],
      "name": "transferOwnership",
      "outputs": [],
      "stateMutability": "nonpayable",
      "type": "function"
    }
  ],
  "bytecode": "0x60806040523480156200001157600080fd5b50336040518060400160405280601981526020017f47697620566f6c756e74656572204365727469666963617465000000000000008152506040518060400160405280600381526020017f4756430000000000000000000000000000000000000000000000000000000000815250816000908162000090919062000472565b508060019081620000a2919062000472565b505050600073ffffffffffffffffffffffffffffffffffffffff168173ffffffffffffffffffffffffffffffffffffffff16036200011a5760006040517f1e4fbdf70000000000000000000000000000000000000000000000000000000081526004016200011191906200059e565b60405180910390fd5b6200012b816200013260201b60201c565b50620005bb565b6000600760009054906101000a900473ffffffffffffffffffffffffffffffffffffffff16905081600760006101000a81548173ffffffffffffffffffffffffffffffffffffffff021916908373ffffffffffffffffffffffffffffffffffffffff1602179055508173ffffffffffffffffffffffffffffffffffffffff168173ffffffffffffffffffffffffffffffffffffffff167f8be0079c531659141344cd1fd0a4f28419497f9722a3daafe3b4186f6b6457e060405160405180910390a35050565b600081519050919050565b7f4e487b7100000000000000000000000000000000000000000000000000000000600052604160045260246000fd5b7f4e487b7100000000000000000000000000000000000000000000000000000000600052602260045260246000fd5b600060028204905060018216806200027a57607f821691505b60208210810362000290576200028f62000232565b5b50919050565b60008190508160005260206000209050919050565b60006020601f8301049050919050565b600082821b905092915050565b600060088302620002fa7fffffffffffffffffffffffffffffffffffffffffffffffffffffffffffffffff82620002bb565b620003068683620002bb565b95508019841693508086168417925050509392505050565b6000819050919050565b6000819050919050565b6000620003536200034d62000347846200031e565b62000328565b6200031e565b9050919050565b6000819050919050565b6200036f8362000332565b620003876200037e826200035a565b848454620002c8565b825550505050565b600090565b6200039e6200038f565b620003ab81848462000364565b505050565b5b81811015620003d357620003c760008262000394565b600181019050620003b1565b5050565b601f8211156200042257620003ec8162000296565b620003f784620002ab565b8101602085101562000407578190505b6200041f6200041685620002ab565b830182620003b0565b50505b505050565b600082821c905092915050565b6000620004476000198460080262000427565b1980831691505092915050565b600062000462838362000434565b9150826002028217905092915050565b6200047d82620001f8565b67ffffffffffffffff81111562000499576200049862000203565b5b620004a5825462000261565b620004b2828285620003d7565b600060209050601f831160018114620004ea5760008415620004d5578287015190505b620004e1858262000454565b86555062000551565b601f198416620004fa8662000296565b60005b828110156200052457848901518255600182019150602085019450602081019050620004fd565b8683101562000544578489015162000540601f89168262000434565b8355505b6001600288020188555050505b505050505050565b600073ffffffffffffffffffffffffffffffffffffffff82169050919050565b6000620005868262000559565b9050919050565b620005988162000579565b82525050565b6000602082019050620005b560008301846200058d565b92915050565b61290280620005cb6000396000f3fe608060405234801561001057600080fd5b50600436106101215760003560e01c8063715018a6116100ad578063c87b56dd11610071578063c87b56dd14610306578063dff2293a14610336578063e985e9c514610366578063ec41651114610396578063f2fde38b146103c657610121565b8063715018a6146102885780638da5cb5b1461029257806395d89b41146102b0578063a22cb465146102ce578063b88d4fde146102ea57610121565b806323b872dd116100f457806323b872dd146101c057806342842e0e146101dc5780636352211e146101f85780636b55243d1461022857806370a082311461025857610121565b806301ffc9a71461012657806306fdde0314610156578063081812fc14610174578063095ea7b3146101a4575b600080fd5b610140600480360381019061013b9190611d2b565b6103e2565b60405161014d9190611d73565b60405180910390f35b61015e6103f4565b60405161016b9190611e1e565b60405180910390f35b61018e60048036038101906101899190611e76565b610486565b60405161019b9190611ee4565b60405180910390f35b6101be60048036038101906101b99190611f2b565b6104a2565b005b6101da60048036038101906101d59190611f6b565b6104b8565b005b6101f660048036038101906101f19190611f6b565b6105ba565b005b610212600480360381019061020d9190611e76565b6105da565b60405161021f9190611ee4565b60405180910390f35b610242600480360381019061023d91906120f3565b6105ec565b60405161024f919061218d565b60405180910390f35b610272600480360381019061026d91906121a8565b6106a4565b60405161027f919061218d565b60405180910390f35b61029061075e565b005b61029a610772565b6040516102a79190611ee4565b60405180910390f35b6102b861079c565b6040516102c59190611e1e565b60405180910390f35b6102e860048036038101906102e39190612201565b61082e565b005b61030460048036038101906102ff91906122e2565b610844565b005b610320600480360381019061031b9190611e76565b610869565b60405161032d9190611e1e565b60405180910390f35b610350600480360381019061034b9190611e76565b61087b565b60405161035d9190611e1e565b60405180910390f35b610380600480360381019061037b9190612365565b610920565b60405161038d9190611d73565b60405180910390f35b6103b060048036038101906103ab9190611e76565b6109b4565b6040516103bd9190611e1e565b60405180910390f35b6103e060048036038101906103db91906121a8565b610a54565b005b60006103ed82610ada565b9050919050565b606060008054610403906123d4565b80601f016020809104026020016040519081016040528092919081815260200182805461042f906123d4565b801561047c5780601f106104515761010080835404028352916020019161047c565b820191906000526020600020905b81548152906001019060200180831161045f57829003601f168201915b5050505050905090565b600061049182610b3b565b5061049b82610bc3565b9050919050565b6104b482826104af610c00565b610c08565b5050565b600073ffffffffffffffffffffffffffffffffffffffff168273ffffffffffffffffffffffffffffffffffffffff160361052a5760006040517f64a0ae920000000000000000000000000000000000000000000000000000000081526004016105219190611ee4565b60405180910390fd5b600061053e8383610539610c00565b610c1a565b90508373ffffffffffffffffffffffffffffffffffffffff168173ffffffffffffffffffffffffffffffffffffffff16146105b4578382826040517f64283d7b0000000000000000000000000000000000000000000000000000000081526004016105ab93929190612405565b60405180910390fd5b50505050565b6105d583838360405180602001604052806000815250610844565b505050565b60006105e582610b3b565b9050919050565b60006105f6610e34565b600860008154809291906106099061246b565b91905055506000600854905061061f8582610ebb565b6106298184610ed9565b83600960008381526020019081526020016000209081610649919061265f565b50808573ffffffffffffffffffffffffffffffffffffffff167fde5d6fd45e32fffb472bcbaeedf6a2e3944633c9701eec7d99adfa07ad6104c1866040516106919190611e1e565b60405180910390a3809150509392505050565b60008073ffffffffffffffffffffffffffffffffffffffff168273ffffffffffffffffffffffffffffffffffffffff16036107175760006040517f89c62b6400000000000000000000000000000000000000000000000000000000815260040161070e9190611ee4565b60405180910390fd5b600360008373ffffffffffffffffffffffffffffffffffffffff1673ffffffffffffffffffffffffffffffffffffffff168152602001908152602001600020549050919050565b610766610e34565b6107706000610f35565b565b6000600760009054906101000a900473ffffffffffffffffffffffffffffffffffffffff16905090565b6060600180546107ab906123d4565b80601f01602080910402602001604051908101604052809291908181526020018280546107d7906123d4565b80156108245780601f106107f957610100808354040283529160200191610824565b820191906000526020600020905b81548152906001019060200180831161080757829003601f168201915b5050505050905090565b610840610839610c00565b8383610ffb565b5050565b61084f8484846104b8565b61086361085a610c00565b8585858561116a565b50505050565b60606108748261131b565b9050919050565b606060096000838152602001908152602001600020805461089b906123d4565b80601f01602080910402602001604051908101604052809291908181526020018280546108c7906123d4565b80156109145780601f106108e957610100808354040283529160200191610914565b820191906000526020600020905b8154815290600101906020018083116108f757829003601f168201915b50505050509050919050565b6000600560008473ffffffffffffffffffffffffffffffffffffffff1673ffffffffffffffffffffffffffffffffffffffff16815260200190815260200160002060008373ffffffffffffffffffffffffffffffffffffffff1673ffffffffffffffffffffffffffffffffffffffff16815260200190815260200160002060009054906101000a900460ff16905092915050565b600960205280600052604060002060009150905080546109d3906123d4565b80601f01602080910402602001604051908101604052809291908181526020018280546109ff906123d4565b8015610a4c5780601f10610a2157610100808354040283529160200191610a4c565b820191906000526020600020905b815481529060010190602001808311610a2f57829003601f168201915b505050505081565b610a5c610e34565b600073ffffffffffffffffffffffffffffffffffffffff168173ffffffffffffffffffffffffffffffffffffffff1603610ace5760006040517f1e4fbdf7000000000000000000000000000000000000000000000000000000008152600401610ac59190611ee4565b60405180910390fd5b610ad781610f35565b50565b6000634906490660e01b7bffffffffffffffffffffffffffffffffffffffffffffffffffffffff1916827bffffffffffffffffffffffffffffffffffffffffffffffffffffffff19161480610b345750610b338261142e565b5b9050919050565b600080610b4783611510565b9050600073ffffffffffffffffffffffffffffffffffffffff168173ffffffffffffffffffffffffffffffffffffffff1603610bba57826040517f7e273289000000000000000000000000000000000000000000000000000000008152600401610bb1919061218d565b60405180910390fd5b80915050919050565b60006004600083815260200190815260200160002060009054906101000a900473ffffffffffffffffffffffffffffffffffffffff169050919050565b600033905090565b610c15838383600161154d565b505050565b600080610c2684611510565b9050600073ffffffffffffffffffffffffffffffffffffffff168373ffffffffffffffffffffffffffffffffffffffff1614610c6857610c67818486611712565b5b600073ffffffffffffffffffffffffffffffffffffffff168173ffffffffffffffffffffffffffffffffffffffff1614610cf957610caa60008560008061154d565b6001600360008373ffffffffffffffffffffffffffffffffffffffff1673ffffffffffffffffffffffffffffffffffffffff168152602001908152602001600020600082825403925050819055505b600073ffffffffffffffffffffffffffffffffffffffff168573ffffffffffffffffffffffffffffffffffffffff1614610d7c576001600360008773ffffffffffffffffffffffffffffffffffffffff1673ffffffffffffffffffffffffffffffffffffffff168152602001908152602001600020600082825401925050819055505b846002600086815260200190815260200160002060006101000a81548173ffffffffffffffffffffffffffffffffffffffff021916908373ffffffffffffffffffffffffffffffffffffffff160217905550838573ffffffffffffffffffffffffffffffffffffffff168273ffffffffffffffffffffffffffffffffffffffff167fddf252ad1be2c89b69c2b068fc378daa952ba7f163c4a11628f55a4df523b3ef60405160405180910390a4809150509392505050565b610e3c610c00565b73ffffffffffffffffffffffffffffffffffffffff16610e5a610772565b73ffffffffffffffffffffffffffffffffffffffff1614610eb957610e7d610c00565b6040517f118cdaa7000000000000000000000000000000000000000000000000000000008152600401610eb09190611ee4565b60405180910390fd5b565b610ed58282604051806020016040528060008152506117d6565b5050565b80600660008481526020019081526020016000209081610ef9919061265f565b507ff8e1a15aba9398e019f0b49df1a4fde98ee17ae345cb5f6b5e2c27f5033e8ce782604051610f29919061218d565b60405180910390a15050565b6000600760009054906101000a900473ffffffffffffffffffffffffffffffffffffffff16905081600760006101000a81548173ffffffffffffffffffffffffffffffffffffffff021916908373ffffffffffffffffffffffffffffffffffffffff1602179055508173ffffffffffffffffffffffffffffffffffffffff168173ffffffffffffffffffffffffffffffffffffffff167f8be0079c531659141344cd1fd0a4f28419497f9722a3daafe3b4186f6b6457e060405160405180910390a35050565b600073ffffffffffffffffffffffffffffffffffffffff168273ffffffffffffffffffffffffffffffffffffffff160361106c57816040517f5b08ba180000000000000000000000000000000000000000000000000000000081526004016110639190611ee4565b60405180910390fd5b80600560008573ffffffffffffffffffffffffffffffffffffffff1673ffffffffffffffffffffffffffffffffffffffff16815260200190815260200160002060008473ffffffffffffffffffffffffffffffffffffffff1673ffffffffffffffffffffffffffffffffffffffff16815260200190815260200160002060006101000a81548160ff0219169083151502179055508173ffffffffffffffffffffffffffffffffffffffff168373ffffffffffffffffffffffffffffffffffffffff167f17307eab39ab6107e8899845ad3d59bd9653f200f220920489ca2b5937696c318360405161115d9190611d73565b60405180910390a3505050565b60008373ffffffffffffffffffffffffffffffffffffffff163b1115611314578273ffffffffffffffffffffffffffffffffffffffff1663150b7a02868685856040518563ffffffff1660e01b81526004016111c99493929190612786565b6020604051808303816000875af192505050801561120557506040513d601f19601f8201168201806040525081019061120291906127e7565b60015b611289573d8060008114611235576040519150601f19603f3d011682016040523d82523d6000602084013e61123a565b606091505b50600081510361128157836040517f64a0ae920000000000000000000000000000000000000000000000000000000081526004016112789190611ee4565b60405180910390fd5b805181602001fd5b63150b7a0260e01b7bffffffffffffffffffffffffffffffffffffffffffffffffffffffff1916817bffffffffffffffffffffffffffffffffffffffffffffffffffffffff19161461131257836040517f64a0ae920000000000000000000000000000000000000000000000000000000081526004016113099190611ee4565b60405180910390fd5b505b5050505050565b606061132682610b3b565b506000600660008481526020019081526020016000208054611347906123d4565b80601f0160208091040260200160405190810160405280929190818152602001828054611373906123d4565b80156113c05780601f10611395576101008083540402835291602001916113c0565b820191906000526020600020905b8154815290600101906020018083116113a357829003601f168201915b5050505050905060006113d16117fa565b905060008151036113e6578192505050611429565b60008251111561141b578082604051602001611403929190612850565b60405160208183030381529060405292505050611429565b61142484611811565b925050505b919050565b60007f80ac58cd000000000000000000000000000000000000000000000000000000007bffffffffffffffffffffffffffffffffffffffffffffffffffffffff1916827bffffffffffffffffffffffffffffffffffffffffffffffffffffffff191614806114f957507f5b5e139f000000000000000000000000000000000000000000000000000000007bffffffffffffffffffffffffffffffffffffffffffffffffffffffff1916827bffffffffffffffffffffffffffffffffffffffffffffffffffffffff1916145b8061150957506115088261187a565b5b9050919050565b60006002600083815260200190815260200160002060009054906101000a900473ffffffffffffffffffffffffffffffffffffffff169050919050565b80806115865750600073ffffffffffffffffffffffffffffffffffffffff168273ffffffffffffffffffffffffffffffffffffffff1614155b156116ba57600061159684610b3b565b9050600073ffffffffffffffffffffffffffffffffffffffff168373ffffffffffffffffffffffffffffffffffffffff161415801561160157508273ffffffffffffffffffffffffffffffffffffffff168173ffffffffffffffffffffffffffffffffffffffff1614155b801561161457506116128184610920565b155b1561165657826040517fa9fbf51f00000000000000000000000000000000000000000000000000000000815260040161164d9190611ee4565b60405180910390fd5b81156116b857838573ffffffffffffffffffffffffffffffffffffffff168273ffffffffffffffffffffffffffffffffffffffff167f8c5be1e5ebec7d5bd14f71427d1e84f3dd0314c0f7b2291e5b200ac8c7c3b92560405160405180910390a45b505b836004600085815260200190815260200160002060006101000a81548173ffffffffffffffffffffffffffffffffffffffff021916908373ffffffffffffffffffffffffffffffffffffffff16021790555050505050565b61171d8383836118e4565b6117d157600073ffffffffffffffffffffffffffffffffffffffff168373ffffffffffffffffffffffffffffffffffffffff160361179257806040517f7e273289000000000000000000000000000000000000000000000000000000008152600401611789919061218d565b60405180910390fd5b81816040517f177e802f0000000000000000000000000000000000000000000000000000000081526004016117c8929190612874565b60405180910390fd5b505050565b6117e083836119a5565b6117f56117eb610c00565b600085858561116a565b505050565b606060405180602001604052806000815250905090565b606061181c82610b3b565b5060006118276117fa565b905060008151116118475760405180602001604052806000815250611872565b8061185184611a9e565b604051602001611862929190612850565b6040516020818303038152906040525b915050919050565b60007f01ffc9a7000000000000000000000000000000000000000000000000000000007bffffffffffffffffffffffffffffffffffffffffffffffffffffffff1916827bffffffffffffffffffffffffffffffffffffffffffffffffffffffff1916149050919050565b60008073ffffffffffffffffffffffffffffffffffffffff168373ffffffffffffffffffffffffffffffffffffffff161415801561199c57508273ffffffffffffffffffffffffffffffffffffffff168473ffffffffffffffffffffffffffffffffffffffff16148061195d575061195c8484610920565b5b8061199b57508273ffffffffffffffffffffffffffffffffffffffff1661198383610bc3565b73ffffffffffffffffffffffffffffffffffffffff16145b5b90509392505050565b600073ffffffffffffffffffffffffffffffffffffffff168273ffffffffffffffffffffffffffffffffffffffff1603611a175760006040517f64a0ae92000000000000000000000000000000000000000000000000000000008152600401611a0e9190611ee4565b60405180910390fd5b6000611a2583836000610c1a565b9050600073ffffffffffffffffffffffffffffffffffffffff168173ffffffffffffffffffffffffffffffffffffffff1614611a995760006040517f73c6ac6e000000000000000000000000000000000000000000000000000000008152600401611a909190611ee4565b60405180910390fd5b505050565b606060006001611aad84611b6c565b01905060008167ffffffffffffffff811115611acc57611acb611fc8565b5b6040519080825280601f01601f191660200182016040528015611afe5781602001600182028036833780820191505090505b509050600082602001820190505b600115611b61578080600190039150507f3031323334353637383961626364656600000000000000000000000000000000600a86061a8153600a8581611b5557611b5461289d565b5b04945060008503611b0c575b819350505050919050565b600080600090507a184f03e93ff9f4daa797ed6e38ed64bf6a1f0100000000000000008310611bca577a184f03e93ff9f4daa797ed6e38ed64bf6a1f0100000000000000008381611bc057611bbf61289d565b5b0492506040810190505b6d04ee2d6d415b85acef81000000008310611c07576d04ee2d6d415b85acef81000000008381611bfd57611bfc61289d565b5b0492506020810190505b662386f26fc100008310611c3657662386f26fc100008381611c2c57611c2b61289d565b5b0492506010810190505b6305f5e1008310611c5f576305f5e1008381611c5557611c5461289d565b5b0492506008810190505b6127108310611c84576127108381611c7a57611c7961289d565b5b0492506004810190505b60648310611ca75760648381611c9d57611c9c61289d565b5b0492506002810190505b600a8310611cb6576001810190505b80915050919050565b6000604051905090565b600080fd5b600080fd5b60007fffffffff0000000000000000000000000000000000000000000000000000000082169050919050565b611d0881611cd3565b8114611d1357600080fd5b50565b600081359050611d2581611cff565b92915050565b600060208284031215611d4157611d40611cc9565b5b6000611d4f84828501611d16565b91505092915050565b60008115159050919050565b611d6d81611d58565b82525050565b6000602082019050611d886000830184611d64565b92915050565b600081519050919050565b600082825260208201905092915050565b60005b83811015611dc8578082015181840152602081019050611dad565b60008484015250505050565b6000601f19601f8301169050919050565b6000611df082611d8e565b611dfa8185611d99565b9350611e0a818560208601611daa565b611e1381611dd4565b840191505092915050565b60006020820190508181036000830152611e388184611de5565b905092915050565b6000819050919050565b611e5381611e40565b8114611e5e57600080fd5b50565b600081359050611e7081611e4a565b92915050565b600060208284031215611e8c57611e8b611cc9565b5b6000611e9a84828501611e61565b91505092915050565b600073ffffffffffffffffffffffffffffffffffffffff82169050919050565b6000611ece82611ea3565b9050919050565b611ede81611ec3565b82525050565b6000602082019050611ef96000830184611ed5565b92915050565b611f0881611ec3565b8114611f1357600080fd5b50565b600081359050611f2581611eff565b92915050565b60008060408385031215611f4257611f41611cc9565b5b6000611f5085828601611f16565b9250506020611f6185828601611e61565b9150509250929050565b600080600060608486031215611f8457611f83611cc9565b5b6000611f9286828701611f16565b9350506020611fa386828701611f16565b9250506040611fb486828701611e61565b9150509250925092565b600080fd5b600080fd5b7f4e487b7100000000000000000000000000000000000000000000000000000000600052604160045260246000fd5b61200082611dd4565b810181811067ffffffffffffffff8211171561201f5761201e611fc8565b5b80604052505050565b6000612032611cbf565b905061203e8282611ff7565b919050565b600067ffffffffffffffff82111561205e5761205d611fc8565b5b61206782611dd4565b9050602081019050919050565b82818337600083830152505050565b600061209661209184612043565b612028565b9050828152602081018484840111156120b2576120b1611fc3565b5b6120bd848285612074565b509392505050565b600082601f8301126120da576120d9611fbe565b5b81356120ea848260208601612083565b91505092915050565b60008060006060848603121561210c5761210b611cc9565b5b600061211a86828701611f16565b935050602084013567ffffffffffffffff81111561213b5761213a611cce565b5b612147868287016120c5565b925050604084013567ffffffffffffffff81111561216857612167611cce565b5b612174868287016120c5565b9150509250925092565b61218781611e40565b82525050565b60006020820190506121a2600083018461217e565b92915050565b6000602082840312156121be576121bd611cc9565b5b60006121cc84828501611f16565b91505092915050565b6121de81611d58565b81146121e957600080fd5b50565b6000813590506121fb816121d5565b92915050565b6000806040838503121561221857612217611cc9565b5b600061222685828601611f16565b9250506020612237858286016121ec565b9150509250929050565b600067ffffffffffffffff82111561225c5761225b611fc8565b5b61226582611dd4565b9050602081019050919050565b600061228561228084612241565b612028565b9050828152602081018484840111156122a1576122a0611fc3565b5b6122ac848285612074565b509392505050565b600082601f8301126122c9576122c8611fbe565b5b81356122d9848260208601612272565b91505092915050565b600080600080608085870312156122fc576122fb611cc9565b5b600061230a87828801611f16565b945050602061231b87828801611f16565b935050604061232c87828801611e61565b925050606085013567ffffffffffffffff81111561234d5761234c611cce565b5b612359878288016122b4565b91505092959194509250565b6000806040838503121561237c5761237b611cc9565b5b600061238a85828601611f16565b925050602061239b85828601611f16565b9150509250929050565b7f4e487b7100000000000000000000000000000000000000000000000000000000600052602260045260246000fd5b600060028204905060018216806123ec57607f821691505b6020821081036123ff576123fe6123a5565b5b50919050565b600060608201905061241a6000830186611ed5565b612427602083018561217e565b6124346040830184611ed5565b949350505050565b7f4e487b7100000000000000000000000000000000000000000000000000000000600052601160045260246000fd5b600061247682611e40565b91507fffffffffffffffffffffffffffffffffffffffffffffffffffffffffffffffff82036124a8576124a761243c565b5b600182019050919050565b60008190508160005260206000209050919050565b60006020601f8301049050919050565b600082821b905092915050565b6000600883026125157fffffffffffffffffffffffffffffffffffffffffffffffffffffffffffffffff826124d8565b61251f86836124d8565b95508019841693508086168417925050509392505050565b6000819050919050565b600061255c61255761255284611e40565b612537565b611e40565b9050919050565b6000819050919050565b61257683612541565b61258a61258282612563565b8484546124e5565b825550505050565b600090565b61259f612592565b6125aa81848461256d565b505050565b5b818110156125ce576125c3600082612597565b6001810190506125b0565b5050565b601f821115612613576125e4816124b3565b6125ed846124c8565b810160208510156125fc578190505b612610612608856124c8565b8301826125af565b50505b505050565b600082821c905092915050565b600061263660001984600802612618565b1980831691505092915050565b600061264f8383612625565b9150826002028217905092915050565b61266882611d8e565b67ffffffffffffffff81111561268157612680611fc8565b5b61268b82546123d4565b6126968282856125d2565b600060209050601f8311600181146126c957600084156126b7578287015190505b6126c18582612643565b865550612729565b601f1984166126d7866124b3565b60005b828110156126ff578489015182556001820191506020850194506020810190506126da565b8683101561271c5784890151612718601f891682612625565b8355505b6001600288020188555050505b505050505050565b600081519050919050565b600082825260208201905092915050565b600061275882612731565b612762818561273c565b9350612772818560208601611daa565b61277b81611dd4565b840191505092915050565b600060808201905061279b6000830187611ed5565b6127a86020830186611ed5565b6127b5604083018561217e565b81810360608301526127c7818461274d565b905095945050505050565b6000815190506127e181611cff565b92915050565b6000602082840312156127fd576127fc611cc9565b5b600061280b848285016127d2565b91505092915050565b600081905092915050565b600061282a82611d8e565b6128348185612814565b9350612844818560208601611daa565b80840191505092915050565b600061285c828561281f565b9150612868828461281f565b91508190509392505050565b60006040820190506128896000830185611ed5565b612896602083018461217e565b9392505050565b7f4e487b7100000000000000000000000000000000000000000000000000000000600052601260045260246000fdfea2646970667358221220e2e067c739fbffd91a23a803659ffa13190bde5fb62d8d8a10d3146abbc61a3264736f6c63430008140033",
  "linkReferences": {},
  "deployedLinkReferences": {}
}